{
  "_format": "hh-sol-artifact-1",
  "contractName": "TwitterContract",
  "sourceName": "contracts/TwitterContract.sol",
  "abi": [
    {
      "anonymous": false,
      "inputs": [
        {
          "indexed": false,
          "internalType": "address",
          "name": "recipient",
          "type": "address"
        },
        {
          "indexed": false,
          "internalType": "uint256",
          "name": "tweetId",
          "type": "uint256"
        }
      ],
      "name": "AddTweet",
      "type": "event"
    },
    {
      "anonymous": false,
      "inputs": [
        {
          "indexed": false,
          "internalType": "uint256",
          "name": "tweetId",
          "type": "uint256"
        },
        {
          "indexed": false,
          "internalType": "bool",
          "name": "isDeleted",
          "type": "bool"
        }
      ],
      "name": "DeleteTweet",
      "type": "event"
    },
    {
      "inputs": [
        {
          "internalType": "string",
          "name": "tweetText",
          "type": "string"
        },
        {
          "internalType": "bool",
          "name": "isDeleted",
          "type": "bool"
        }
      ],
      "name": "addTweet",
      "outputs": [],
      "stateMutability": "nonpayable",
      "type": "function"
    },
    {
      "inputs": [
        {
          "internalType": "uint256",
          "name": "tweetId",
          "type": "uint256"
        },
        {
          "internalType": "bool",
          "name": "isDeleted",
          "type": "bool"
        }
      ],
      "name": "deleteTweet",
      "outputs": [],
      "stateMutability": "nonpayable",
      "type": "function"
    },
    {
      "inputs": [],
      "name": "getAllTweets",
      "outputs": [
        {
          "components": [
            {
              "internalType": "uint256",
              "name": "id",
              "type": "uint256"
            },
            {
              "internalType": "address",
              "name": "username",
              "type": "address"
            },
            {
              "internalType": "string",
              "name": "tweetText",
              "type": "string"
            },
            {
              "internalType": "bool",
              "name": "isDeleted",
              "type": "bool"
            }
          ],
          "internalType": "struct TwitterContract.Tweet[]",
          "name": "",
          "type": "tuple[]"
        }
      ],
      "stateMutability": "view",
      "type": "function"
    },
    {
      "inputs": [],
      "name": "getMyTweets",
      "outputs": [
        {
          "components": [
            {
              "internalType": "uint256",
              "name": "id",
              "type": "uint256"
            },
            {
              "internalType": "address",
              "name": "username",
              "type": "address"
            },
            {
              "internalType": "string",
              "name": "tweetText",
              "type": "string"
            },
            {
              "internalType": "bool",
              "name": "isDeleted",
              "type": "bool"
            }
          ],
          "internalType": "struct TwitterContract.Tweet[]",
          "name": "",
          "type": "tuple[]"
        }
      ],
      "stateMutability": "view",
      "type": "function"
    }
  ],
  "bytecode": "0x608060405234801561001057600080fd5b5061101d806100206000396000f3fe608060405234801561001057600080fd5b506004361061004c5760003560e01c80635325613514610051578063aefedbc21461006f578063e580339f1461008d578063f0312a37146100a9575b600080fd5b6100596100c5565b6040516100669190610985565b60405180910390f35b610077610287565b6040516100849190610985565b60405180910390f35b6100a760048036038101906100a29190610b1c565b6104b4565b005b6100c360048036038101906100be9190610ba4565b61063a565b005b60606000808054905067ffffffffffffffff8111156100e7576100e66109c5565b5b60405190808252806020026020018201604052801561012057816020015b61010d61071b565b8152602001906001900390816101055790505b5090506000805b6000805490508110156101cd57600015156000828154811061014c5761014b610be4565b5b906000526020600020906004020160030160009054906101000a900460ff161515036101ba5782818151811061018557610184610be4565b5b60200260200101518383815181106101a05761019f610be4565b5b602002602001018190525081806101b690610c42565b9250505b80806101c590610c42565b915050610127565b5060008167ffffffffffffffff8111156101ea576101e96109c5565b5b60405190808252806020026020018201604052801561022357816020015b61021061071b565b8152602001906001900390816102085790505b50905060005b8281101561027d5783818151811061024457610243610be4565b5b602002602001015182828151811061025f5761025e610be4565b5b6020026020010181905250808061027590610c42565b915050610229565b5080935050505090565b60606000808054905067ffffffffffffffff8111156102a9576102a86109c5565b5b6040519080825280602002602001820160405280156102e257816020015b6102cf61071b565b8152602001906001900390816102c75790505b5090506000805b6000805490508110156103fa573373ffffffffffffffffffffffffffffffffffffffff166001600083815260200190815260200160002060009054906101000a900473ffffffffffffffffffffffffffffffffffffffff1673ffffffffffffffffffffffffffffffffffffffff1614801561039a5750600015156000828154811061037757610376610be4565b5b906000526020600020906004020160030160009054906101000a900460ff161515145b156103e7578281815181106103b2576103b1610be4565b5b60200260200101518383815181106103cd576103cc610be4565b5b602002602001018190525081806103e390610c42565b9250505b80806103f290610c42565b9150506102e9565b5060008167ffffffffffffffff811115610417576104166109c5565b5b60405190808252806020026020018201604052801561045057816020015b61043d61071b565b8152602001906001900390816104355790505b50905060005b828110156104aa5783818151811061047157610470610be4565b5b602002602001015182828151811061048c5761048b610be4565b5b602002602001018190525080806104a290610c42565b915050610456565b5080935050505090565b600080805490509050600060405180608001604052808381526020013373ffffffffffffffffffffffffffffffffffffffff16815260200185815260200184151581525090806001815401808255809150506001900390600052602060002090600402016000909190919091506000820151816000015560208201518160010160006101000a81548173ffffffffffffffffffffffffffffffffffffffff021916908373ffffffffffffffffffffffffffffffffffffffff16021790555060408201518160020190816105879190610e96565b5060608201518160030160006101000a81548160ff0219169083151502179055505050336001600083815260200190815260200160002060006101000a81548173ffffffffffffffffffffffffffffffffffffffff021916908373ffffffffffffffffffffffffffffffffffffffff1602179055507f8b2db9b424f26463510ef5b02c16f2465836b52081b51d2112ec76102053bdea338260405161062d929190610f86565b60405180910390a1505050565b3373ffffffffffffffffffffffffffffffffffffffff166001600084815260200190815260200160002060009054906101000a900473ffffffffffffffffffffffffffffffffffffffff1673ffffffffffffffffffffffffffffffffffffffff16036107175780600083815481106106b5576106b4610be4565b5b906000526020600020906004020160030160006101000a81548160ff0219169083151502179055507f2430f837dd2fb40e08c064be9db3d0cf2a7a21f8fe716a2a41787dafc66a7e2a828260405161070e929190610fbe565b60405180910390a15b5050565b604051806080016040528060008152602001600073ffffffffffffffffffffffffffffffffffffffff168152602001606081526020016000151581525090565b600081519050919050565b600082825260208201905092915050565b6000819050602082019050919050565b6000819050919050565b61079a81610787565b82525050565b600073ffffffffffffffffffffffffffffffffffffffff82169050919050565b60006107cb826107a0565b9050919050565b6107db816107c0565b82525050565b600081519050919050565b600082825260208201905092915050565b60005b8381101561081b578082015181840152602081019050610800565b60008484015250505050565b6000601f19601f8301169050919050565b6000610843826107e1565b61084d81856107ec565b935061085d8185602086016107fd565b61086681610827565b840191505092915050565b60008115159050919050565b61088681610871565b82525050565b60006080830160008301516108a46000860182610791565b5060208301516108b760208601826107d2565b50604083015184820360408601526108cf8282610838565b91505060608301516108e4606086018261087d565b508091505092915050565b60006108fb838361088c565b905092915050565b6000602082019050919050565b600061091b8261075b565b6109258185610766565b93508360208202850161093785610777565b8060005b85811015610973578484038952815161095485826108ef565b945061095f83610903565b925060208a0199505060018101905061093b565b50829750879550505050505092915050565b6000602082019050818103600083015261099f8184610910565b905092915050565b6000604051905090565b600080fd5b600080fd5b600080fd5b600080fd5b7f4e487b7100000000000000000000000000000000000000000000000000000000600052604160045260246000fd5b6109fd82610827565b810181811067ffffffffffffffff82111715610a1c57610a1b6109c5565b5b80604052505050565b6000610a2f6109a7565b9050610a3b82826109f4565b919050565b600067ffffffffffffffff821115610a5b57610a5a6109c5565b5b610a6482610827565b9050602081019050919050565b82818337600083830152505050565b6000610a93610a8e84610a40565b610a25565b905082815260208101848484011115610aaf57610aae6109c0565b5b610aba848285610a71565b509392505050565b600082601f830112610ad757610ad66109bb565b5b8135610ae7848260208601610a80565b91505092915050565b610af981610871565b8114610b0457600080fd5b50565b600081359050610b1681610af0565b92915050565b60008060408385031215610b3357610b326109b1565b5b600083013567ffffffffffffffff811115610b5157610b506109b6565b5b610b5d85828601610ac2565b9250506020610b6e85828601610b07565b9150509250929050565b610b8181610787565b8114610b8c57600080fd5b50565b600081359050610b9e81610b78565b92915050565b60008060408385031215610bbb57610bba6109b1565b5b6000610bc985828601610b8f565b9250506020610bda85828601610b07565b9150509250929050565b7f4e487b7100000000000000000000000000000000000000000000000000000000600052603260045260246000fd5b7f4e487b7100000000000000000000000000000000000000000000000000000000600052601160045260246000fd5b6000610c4d82610787565b91507fffffffffffffffffffffffffffffffffffffffffffffffffffffffffffffffff8203610c7f57610c7e610c13565b5b600182019050919050565b7f4e487b7100000000000000000000000000000000000000000000000000000000600052602260045260246000fd5b60006002820490506001821680610cd157607f821691505b602082108103610ce457610ce3610c8a565b5b50919050565b60008190508160005260206000209050919050565b60006020601f8301049050919050565b600082821b905092915050565b600060088302610d4c7fffffffffffffffffffffffffffffffffffffffffffffffffffffffffffffffff82610d0f565b610d568683610d0f565b95508019841693508086168417925050509392505050565b6000819050919050565b6000610d93610d8e610d8984610787565b610d6e565b610787565b9050919050565b6000819050919050565b610dad83610d78565b610dc1610db982610d9a565b848454610d1c565b825550505050565b600090565b610dd6610dc9565b610de1818484610da4565b505050565b5b81811015610e0557610dfa600082610dce565b600181019050610de7565b5050565b601f821115610e4a57610e1b81610cea565b610e2484610cff565b81016020851015610e33578190505b610e47610e3f85610cff565b830182610de6565b50505b505050565b600082821c905092915050565b6000610e6d60001984600802610e4f565b1980831691505092915050565b6000610e868383610e5c565b9150826002028217905092915050565b610e9f826107e1565b67ffffffffffffffff811115610eb857610eb76109c5565b5b610ec28254610cb9565b610ecd828285610e09565b600060209050601f831160018114610f005760008415610eee578287015190505b610ef88582610e7a565b865550610f60565b601f198416610f0e86610cea565b60005b82811015610f3657848901518255600182019150602085019450602081019050610f11565b86831015610f535784890151610f4f601f891682610e5c565b8355505b6001600288020188555050505b505050505050565b610f71816107c0565b82525050565b610f8081610787565b82525050565b6000604082019050610f9b6000830185610f68565b610fa86020830184610f77565b9392505050565b610fb881610871565b82525050565b6000604082019050610fd36000830185610f77565b610fe06020830184610faf565b939250505056fea2646970667358221220aa83fb24d3e79cf7e818154239f5b1cc19d664ef27b867e67e8b936de14f9d1d64736f6c63430008110033",
  "linkReferences": {},
  "deployedLinkReferences": {}
}